:020000040801F1
:100000008021002065010108DD1501088D0E010821
:10001000D9150108610301082B1E0108000000002A
:100020000000000000000000000000007918010836
:10003000970C01080000000051160108C5190108BD
:100040007F0101087F0101087F0101087F0101088C
:100050007F0101087F0101087F010108990C010857
:100060007F0101087F0101087F0101087F0101086C
:100070007F0101087F0101087F0101087F0101085C
:100080007F0101087F0101087F0101087F0101084C
:1000900041050108B90501087F0101087F01010838
:1000A0007F0101087F0101087F0101087F0101082C
:1000B000351A01087F0101087F0101087F0101084D
:1000C0007F0101087F0101087F0101087F0101080C
:1000D0007F010108451B01087F0101087F0101081C
:1000E0007F0101087F0101087F0101080000000075
:1000F0000000000000000000000000000000000000
:1001000000000000000000007F0101087F010108DD
:100110007F0101087F0101087F0101087F010108BB
:100120007F0101087F0101087F0101087F010108AB
:100130007F0101087F0101087F0101087F0101089B
:1001400031060108A90601087F0101087F010108A5
:10015000DFF80CD000F02AF800480047A52001087D
:10016000802100200648804706480047FEE7FEE75A
:10017000FEE7FEE7FEE7FEE7FEE7FEE7FEE7FEE757
:10018000C91901085101010840EA01039B0703D086
:1001900009E008C9121F08C0042AFAD203E011F8C6
:1001A000013B00F8013B521EF9D27047064C074D47
:1001B00006E0E06840F0010394E807009847103437
:1001C000AC42F6D3FFF7C8FFFC2201081C2301084C
:1001D00010B52CA001F02CFE0121002000F0A4FF9E
:1001E0000021012000F0A0FF0021022000F09CFF70
:1001F0000021032000F098FF0021042000F094FF6C
:100200000021052000F090FF0021062000F08CFF67
:100210000021072000F088FF0021082000F084FF63
:100220000021092000F080FF00210A2000F07CFF5F
:1002300000210B2000F078FF00210C2000F074FF5B
:1002400000210D2000F070FF00210E2000F06CFF57
:1002500000210F2000F068FF0021102000F064FF53
:100260000021112000F060FFFA2000F07BF840F23E
:1002700081120021084600F091FE6421012001F066
:1002800039F910BD61707020696E697420737461F2
:1002900072740D0A0000000010B59CB019A901206D
:1002A00001F084F8002846D06421012001F022F9F1
:1002B00029480068C0432949C1F8800101208DF810
:1002C000680002208DF8690003208DF86A00042080
:1002D0008DF86B0005208DF86C0006208DF86D0000
:1002E00007208DF86E0008208DF86F000A216846FF
:1002F00001F048FF04462146684601F093FF0823B9
:100300001AAA002140F2251000F016FE08231AAAAE
:1003100000214FF4917000F00FFE08231AAA00216B
:1003200040F2231000F008FE08231AAA00214FF41F
:10033000927000F001FE002000F0EEFD50B11AA90D
:10034000002000F0BFFD08231AAA002140F231105E
:1003500000F0F2FD1CB010BD8001214200002142DE
:1003600000BFFEE730B585B00446002501214806F0
:1003700001F070F90121042001F07CF94FF40060D4
:10038000ADF8100048208DF8130003208DF81200FE
:1003900004A9694800F0A4FC4FF48050ADF81000A7
:1003A00018208DF8130003208DF8120004A962486C
:1003B00000F096FC00208DF80A0001208DF80B005B
:1003C00000208DF80C0001208DF80D0000208DF824
:1003D0000E008DF80F008DF806007D2C47D008DC4C
:1003E0000A2C0FD0142C1BD0322C26D0642C73D1A5
:1003F00030E0FA2C48D0B4F5FA7F52D0B4F57A7FC9
:100400006AD15BE001208DF8070009208DF8080013
:1004100000208DF809004FF49670ADF804005EE0FE
:1004200001208DF8070007208DF8080000208DF8C6
:100430000900B420ADF8040051E001208DF8070058
:1004400009208DF8080000208DF809003C20ADF847
:10045000040044E001208DF807000F208DF808000B
:1004600000208DF809001420ADF8040037E00120C9
:100470008DF807000F208DF8080000208DF8090086
:100480001020ADF804002AE001208DF807000F20AD
:100490008DF8080000208DF809000820ADF8040050
:1004A0001DE001208DF807000F208DF808000020C6
:1004B0008DF809000420ADF8040010E001208DF84B
:1004C00007000F208DF8080000208DF80900022099
:1004D000ADF8040003E0FFE7002005B030BD00BF29
:1004E00001A9164800F039FA0546012D01D0002077
:1004F000F3E701221221114800F026FA14208DF8AA
:10050000000002208DF801008DF8020001208DF816
:100510000300684601F064F815208DF80000022001
:100520008DF8010001208DF802008DF80300684667
:1005300001F056F80120D0E70008014000640040B7
:1005400030B585B0002400250221164800F06CF972
:1005500020B16A460021134800F089FA05E0601CCA
:10056000C4B20F2C01DD05B030BD0F4951F8241085
:1005700000988842F3D101200C490855002508E075
:100580000DF10B00405D0A4901EBC4014855681CA0
:10059000C5B2082DF4DB9DF80A000649085500BFD6
:1005A000E1E7000000640040CC000020AC01002026
:1005B000E4010020A403002030B585B0002400250C
:1005C0001021164800F030F920B16A460121134885
:1005D00000F04DFA05E0601CC4B20F2C01DD05B03F
:1005E00030BD0F4951F8241001988842F3D1012001
:1005F0000C490855002508E00DF10B00405D0A4943
:1006000001EBC4014855681CC5B2082DF4DB9DF808
:100610000A000649085500BFE1E7000000640040F9
:10062000CC000020AC010020E4010020A403002045
:1006300030B585B0002400250221164800F0F4F8FA
:1006400020B16A460021134800F011FA05E0601C51
:10065000C4B20F2C01DD05B030BD0F4951F8241094
:1006600000988842F3D101200C490855002508E084
:100670000DF10B00405D0A4901EBC4014855681CAF
:10068000C5B2082DF4DB9DF80A000649085500BFE5
:10069000E1E700000068004014040020F40400209A
:1006A0002C050020EC06002030B585B00024002584
:1006B0001021164800F0B8F820B16A46012113480D
:1006C00000F0D5F905E0601CC4B20F2C01DD05B0C7
:1006D00030BD0F4951F8241001988842F3D1012010
:1006E0000C490855002508E00DF10B00405D0A4952
:1006F00001EBC4014855681CC5B2082DF4DB9DF818
:100700000A000649085500BFE1E700000068004004
:1007100014040020F40400202C050020EC06002026
:1007200010B50021837A012202FA03F13D4A1268D2
:1007300042F001023B4B1A603A4A1C3212688A436B
:10074000384B1C331A60027BCAB9364A0C32126825
:100750008A43344B0C331A604288C38842EA03430D
:10076000304A4032847A42F834300288838842EA40
:1007700003432C4A4032847A02EBC4025360027B6A
:10078000012A19D1274A0C3212680A43254B0C332F
:100790001A604288038842EA0343224A4032847A3C
:1007A00042F83430C288838842EA03431D4A40320B
:1007B000847A02EBC4025360C27A3AB9194A121D14
:1007C00012688A43174B1B1D1A6006E0154A121D5A
:1007D00012680A43134B1B1D1A60028932B9114A71
:1007E000143212688A430F4B14331A600289012AAB
:1007F00006D10C4A143212680A430A4B14331A60A9
:10080000427B012A06D1074A1C3212680A43054B73
:100810001C331A60034A126822F00102014B1A606D
:1008200010BD00000066004070B504460D4600266D
:1008300060692840002871D0B5F5807F5CD010DC5D
:10084000082D35D006DC012D20D0022D24D0042D1A
:1008500072D127E0102D31D0202D35D0402D6BD115
:1008600038E0B5F5004F60D009DCB5F5007F49D020
:10087000B5F5806F4CD0B5F5006F5DD14FE0B5F5A3
:10088000803F2DD0B5F5003F56D12FE0A0682D490F
:1008900000F0F8F9064651E0E068032100F0F2F9B3
:1008A00006464BE0E068082100F0ECF9064645E01A
:1008B000E068102100F0E6F906463FE020690321D8
:1008C00000F0E0F9064639E02069082100F0DAF985
:1008D000064633E02069102100F0D4F906462DE0E9
:1008E0006068082100F0CEF9064627E06068102114
:1008F00000F0C8F9064621E0A069012100F0C2F924
:1009000006461BE0A069022100F0BCF9064615E08E
:10091000A069042100F0B6F906460FE00FE0A069D7
:10092000702100F0AFF9064608E06068042100F08D
:10093000A9F9064602E0FFE7002600BF00E0002616
:10094000304670BD010101001AB143690B43436198
:1009500002E043698B434361704730B50246002093
:100960000023146824F002041460146844F00104A5
:10097000146000E05B1C546804F001041CB94FF6DD
:10098000FF74A342F6D1546804F001040CB90020AE
:100990006CE08C79012C04D1146844F0800414605C
:1009A00003E0146824F080041460CC79012C04D195
:1009B000146844F04004146003E0146824F0400418
:1009C00014600C7A012C04D1146844F020041460E3
:1009D00003E0146824F0200414604C7A012C04D144
:1009E000146844F01004146003E0146824F0100448
:1009F00014608C7A012C04D1146844F0080414604B
:100A000003E0146824F008041460CC7A012C04D1AB
:100A1000146844F00404146003E0146824F004042F
:100A200014608C78A407CD7844EA05640D7944EA13
:100A300005444D7944EA05540D886D1E2C43D4615C
:100A4000146824F001041460002300E05B1C546867
:100A500004F001041CB14FF6FF74A342F6D15468B0
:100A600004F001040CB1002000E0012030BD10B5FD
:100A700000F5D87303EB01131B6803F00403137232
:100A8000137A53B900F5D87303EB01131B6840F2D6
:100A9000FF7404EA5353136009E000F5D87303EBC5
:100AA00001131B686FF0604404EAD303536000F540
:100AB000D87303EB01131B6803F00203537200F5B4
:100AC000D87303EB01135B6803F00F03937200F517
:100AD000D87303EB01135B681B0AD37400F5D8735A
:100AE00003EB01139B68D37200F5D87303EB01137A
:100AF0009B681C0A147300F5D87303EB01139B6801
:100B00001C0C547300F5D87303EB01139B681B0E88
:100B1000937300F5D87303EB0113DB68D37300F50F
:100B2000D87303EB0113DB681C0A147400F5D87347
:100B300003EB0113DB681C0C547400F5D87303EB52
:100B40000113DB681B0E937421B9C36843F02003C3
:100B5000C36003E0036943F02003036110BD10B5D7
:100B600002460020936803F08063B3F1806F00D1E8
:100B700010E0936803F00063B3F1006F01D101202E
:100B800008E0936803F08053B3F1805F01D1022045
:100B900000E00420042874D002F5C07303EB0013B6
:100BA0001B6803F0010402F5C07303EB00131C6023
:100BB0000B7A7BB94B7A0C8843EA445302F5C07434
:100BC00004EB00142468234302F5C07404EB001402
:100BD000236010E00B7A4C6843EAC4034C7A234349
:100BE00002F5C07404EB00142468234302F5C074BA
:100BF00004EB001423608B7A03F00F038B7202F571
:100C0000C07303EB00135B6823F00F0402F5C0739D
:100C100003EB00135C6002F5C07303EB00135B6829
:100C20008C7A234302F5C07404EB001463608B7B61
:100C30001C064B7B44EA03440B7B44EA0323CC7A37
:100C4000234302F5C07404EB0014A3608B7C1C06E4
:100C50004B7C44EA03440B7C44EA0323CC7B2343D0
:100C600002F5C07404EB0014E36002F5C07303EBFB
:100C700000131B6843F0010402F5C07303EB00137B
:100C80001C6010BD0246002002EA01030BB10120E6
:100C900000E000207047704710B5022000F00CF80B
:100CA00010B1022000F002F810BD000001490860F8
:100CB0007047000014040140014600200022074B49
:100CC0001B6803EA0102054B14331B680B4013B188
:100CD0000AB1012000E0002070470000000401403C
:100CE0002DE9F041024600250026002000230024C3
:100CF000002791F803C00CF00F0591F803C00CF029
:100D0000100CBCF1000F03D091F802C04CEA0505AD
:100D100091F800C0BCF1000F31D0146800202BE026
:100D20004FF0010C0CFA00F3B1F800C00CEA030616
:100D30009E4220D183004FF00F0C0CFA03F7BC4306
:100D400005FA03FC4CEA040491F803C0BCF1280F37
:100D500006D14FF0010C0CFA00FCC2F814C00AE0F6
:100D600091F803C0BCF1480F05D14FF0010C0CFA0B
:100D700000FCC2F810C0401C0828D1D31460B1F8A0
:100D800000C0BCF1FF0F34DD546800202EE000F1FC
:100D9000080C4FF0010808FA0CF3B1F800C00CEA97
:100DA00003069E4221D183004FF00F0C0CFA03F78B
:100DB000BC4305FA03FC4CEA040491F803C0BCF1FF
:100DC000280F05D100F1080C08FA0CF8C2F81480BD
:100DD00091F803C0BCF1480F07D100F1080C4FF0A7
:100DE000010808FA0CF8C2F81080401C0828CED37D
:100DF0005460BDE8F0810000F0B50A4600230024ED
:100E00000021002500F00046B6F1004F02D11D4E32
:100E1000F16901E01B4E7168C0F3034583B200F431
:100E20004016B6F5401F08D121F07061154E766866
:100E300026F07066134F7E6012E000F48016B6F55F
:100E4000801F06D1032606FA05F4A14341F0706124
:100E500006E0460D360103FA06F6B14341F0706133
:100E600022B1460D360103FA06F6314300F0004682
:100E7000B6F1004F02D1034EF16101E0014E716005
:100E8000F0BD0000000001400161704700BFFEE7B7
:100E900008B50121042000F0EDFB0120ADF80000B1
:100EA00010208DF8030003208DF8020069460348E6
:100EB000FFF716FF00200249086008BD0008014046
:100EC0008001214210B502460B460E2A1ADA0E485E
:100ED000805CB8B1002106E00C4800EBC200405C29
:100EE0005854481CC1B20829F6DB0020084CA05415
:100EF0000848805C082802DD0820064CA0540548FC
:100F0000805C10BD0020FCE792000020E40100207E
:100F1000AC010020A403002001460E2905DA044894
:100F2000405C10B10348405C70470020FCE70000C3
:100F300092000020AC0100202DE9F04186B005466A
:100F40000E4690461F460024012E04D1029504202F
:100F50008DF80C0009E026B9019500208DF80C00F1
:100F600003E0022006B0BDE8F08100208DF80D00FE
:100F7000F8B28DF80E00002406E018F804100DF108
:100F80000F000155601C84B2BC42F6DB01A9024887
:100F900001F06FF80020E5E75C0700207FB505460B
:100FA0000E4614460E2D52DA3EB30220284948550B
:100FB000284840F8254024F06044E8B28DF80A0043
:100FC00001208DF80B008DF80C00600BADF80000CF
:100FD000042000EBC40080B2ADF802004FF6FF70B1
:100FE000ADF80400ADF806000120ADF808008DF85A
:100FF0000D006846FFF794FB28E00120144948558E
:10100000144840F82540C4F30A04E8B28DF80A00F9
:1010100001208DF80B008DF80C006005000CADF878
:101020000000002040EA445080B2ADF802004FF6C4
:10103000FF70ADF80400ADF806000020ADF8080020
:1010400001208DF80D006846FFF76AFB00BF7FBDE9
:1010500092000020CC00002008B501211C2000F0E7
:1010600009FB0E20ADF8000048208DF80300032096
:101070008DF8020069460A48FFF732FE40F203305D
:10108000ADF8000069460748FFF72AFE4EF23F0020
:10109000ADF8000069460448FFF722FE08BD0000D5
:1010A00000080140000C01400010014008B501217A
:1010B000084600F0DFFA01213C2000F0DBFA0121B4
:1010C0001448FFF799FE4FF40140ADF800001020DE
:1010D0008DF8030003208DF8020069460E48FFF7E3
:1010E000FFFD4CF6F040ADF8000069460B48FFF7F5
:1010F000F7FD4FF4FE50ADF8000069460848FFF7D1
:10110000EFFD0420ADF8000069460648FFF7E8FD52
:1011100008BD00000002300000080140000C014042
:1011200000100140001401400246112A01DD002098
:101130007047012901DD0020FAE7122A72D2DFE8A8
:1011400002F0090E141A20252A30363B41474D5330
:10115000595F656B354801603548017062E033487E
:10116000001F0160324841705CE03048083801607F
:101170002F48817056E02D480C3801602C48C17012
:1011800050E02C4801602A4801714BE02A48016078
:101190002748417146E02848001F016024488171BA
:1011A00040E02548083801602148C1713AE02348F1
:1011B00001601F48017235E020481C3801601C485E
:1011C00041722FE01C480C3801601948817229E0F7
:1011D0001948103801601648C17223E016481438C7
:1011E0000160134801731DE013481838016010486E
:1011F000417317E00D48203001600D48817311E004
:101200000A481C3001600A48C1730BE007480C30E3
:1012100001600748017405E004481030016004488B
:10122000417400BF00BF012082E700009C81214281
:101230008000002088812242B0012242BC0121426C
:101240004648006850B145480068401E4349086060
:101250000846006810B901204149087041480068FB
:1012600050B140480068401E3E490860084600688A
:1012700010B901203C4908703C48006850B13B4817
:101280000068401E394908600846006810B901200E
:10129000374908703748006850B136480068401E2A
:1012A000344908600846006810B9012032490870C6
:1012B0003248006850B131480068401E2F4908602C
:1012C0000846006810B901202D4908702D480068B3
:1012D00050B12C480068401E2A4908600846006842
:1012E00010B90120284908702848006850B12748E3
:1012F0000068401E254908600846006810B90120B2
:10130000234908702348006850B122480068401EF5
:10131000204908600846006810B901201E4908707D
:101320001E48006850B11D480068401E1B490860F7
:101330000846006810B9012019490870194800686A
:1013400050B118480068401E1649086008460068F9
:1013500010B90120144908707047000018000020DF
:101360001C00002020000020240000202800002075
:101370002C00002030000020340000203800002025
:101380003C000020400000204400002048000020D5
:101390004C00002050000020540000205800002085
:1013A0005C00002060000020640000200246002055
:1013B0000B2A43D2DFE802F042060C12181E242A40
:1013C00030363C001F4B18781F4B1B680B6037E012
:1013D0001E4B18781E4B1B680B6031E01D4B1878B4
:1013E0001D4B1B680B602BE01C4B18781C4B1B68BB
:1013F0000B6025E01B4B18781B4B1B680B601FE034
:101400001A4B18781A4B1B680B6019E0194B1878A7
:10141000194B1B680B6013E0184B1878184B1B68AE
:101420000B600DE0174B1878174B1B680B6007E03B
:10143000164B1878164B1B680B6001E0002000BFAC
:1014400000BF70471C00002018000020240000206E
:10145000200000202C000020280000203400002064
:10146000300000203C000020380000204400002014
:10147000400000204C0000204800002054000020C4
:10148000500000205C000020580000206400002074
:10149000600000201FB50121084600F0DBF84FF482
:1014A0007A70ADF808004720ADF804000020ADF8D0
:1014B0000A00ADF8060001A94FF0804000F0F0FAF4
:1014C00001221146900700F0E2FA1C208DF800007E
:1014D00002208DF8010003208DF8020001208DF814
:1014E0000300684600F07CF80121880700F0B2FA9A
:1014F0001FBD00000B2843D2DFE800F042060C12AB
:10150000181E242A30363C001F4A116000221F4B4F
:101510001A7036E01E4A116000221E4B1A7030E02D
:101520001D4A116000221D4B1A702AE01C4A1160EE
:1015300000221C4B1A7024E01B4A116000221B4B36
:101540001A701EE01A4A116000221A4B1A7018E035
:10155000194A11600022194B1A7012E0184A1160E2
:101560000022184B1A700CE0174A11600022174B2A
:101570001A7006E0164A11600022164B1A7000E03D
:1015800000BF00BF70470000180000201C000020B2
:101590002000002024000020280000202C00002033
:1015A0003000002034000020380000203C000020E3
:1015B0004000002044000020480000204C00002093
:1015C0005000002054000020580000205C00002043
:1015D000600000206400002000BFFEE770470000AC
:1015E00070B5002100230F22C47804B3154C246881
:1015F00004F4E064C4F5E064210AC1F10403CA40C4
:10160000447804FA03F184781440214309010E4C14
:101610000678A155047804F01F050124AC40057834
:101620006D11AD0005F1E025C5F8004109E0047831
:1016300004F01F050124AC40044D0678761145F8EE
:10164000264070BD0CED00E000E400E080E100E029
:101650007047000029B1064AD2690243044BDA619F
:1016600004E0034AD2698243014BDA61704700000B
:101670000010024029B1064A92690243044B9A6164
:1016800004E0034A92698243014B9A61704700006B
:10169000001002402DE9F041002100220025002326
:1016A0000026002400278C46DFF86081D8F80480EB
:1016B00008F00C0121B1042907D0082959D109E00B
:1016C000DFF84C81C0F8008058E0DFF84881C0F8AE
:1016D000008053E0DFF83481D8F8048008F47012F9
:1016E000DFF82881D8F8048008F48035920C0D2AA0
:1016F00001D0921C00E0062235B9DFF81C8102FB04
:1017000008F8C0F8008033E0DFF80081D8F82C80BA
:1017100008F48036DFF8F480D8F82C8008F00F0841
:1017200008F1010446B9DFF8EC80B8FBF4F808FBD7
:1017300002F8C0F800801BE0DFF8D080D8F82C80D9
:10174000C8F3031808F10107DFF8C080D8F82C802F
:10175000C8F3032808F1020CDFF8B880B8FBF7F8EB
:1017600008FB0CF8B8FBF4F808FB02F8C0F800809E
:1017700004E0DFF89C80C0F8008000BF00BFDFF805
:101780008C80D8F8048008F0F0010909DFF88C801B
:1017900018F80130D0F8008028FA03F8C0F8048067
:1017A000DFF86880D8F8048008F4E061090ADFF8FF
:1017B0006C8018F80130D0F8048028FA03F8C0F8DB
:1017C0000880DFF84880D8F8048008F46051C90A1E
:1017D000DFF8488018F80130D0F8048028FA03F8C0
:1017E000C0F80C80DFF82480D8F8048008F4404169
:1017F000890BDFF82C8018F80130D0F80C80B8FB8A
:10180000F3F8C0F81080BDE8F0810000001002403D
:1018100000127A0000366E0100093D0065000020CC
:101820007500002021B1028842F04002028004E0ED
:1018300002884FF6BF731A400280704710B500222D
:10184000028802F441520B884C8823438C8823433E
:10185000CC8823430C8923434C8923438C8923431D
:10186000CC8923431A430280838B4FF2FF742340B9
:1018700083830B8A038210BD704710B500F002F815
:1018800010BD00000CB50020019000903F4800689A
:1018900040F480303D49086000BF3C48006800F4D7
:1018A000003000900198401C0190009818B90198F0
:1018B000B0F5A06FF1D13548006800F4003010B1E8
:1018C0000120009001E000200090009801285CD1E8
:1018D0002F48006840F010002D4908600846006855
:1018E00020F0030008600846006840F0020008602D
:1018F00026484068254948600846406848600846D0
:10190000406840F4806048600846C06A2149084049
:101910001E49C8620846C06A1F4908431B49C8627D
:101920000846006840F08060086000BF1748006803
:1019300000F000600028F9D01448406820F47C10C2
:10194000124948600846406840F4E810486008467C
:10195000006840F08070086000BF0C48006800F02C
:1019600000700028F9D00948406820F003000749BA
:1019700048600846406840F00200486000BF0348E5
:10198000406800F00C000828F9D10CBD001002409E
:101990000020024000F0FEFF72060100042808D17A
:1019A0004FF0E021096941F004014FF0E02211619C
:1019B00007E04FF0E021096921F004014FF0E02237
:1019C000116170477047000010B51648006840F07C
:1019D000010014490860084640681349084011494D
:1019E000486008460068114908400E4908600846EA
:1019F000006820F4802008600846406820F4FE005B
:101A000048600846006820F0A05008604FF47F004E
:101A100088600020C862FFF730FF4FF00060044983
:101A2000086010BD001002400000FFF0FFFFF6FE4E
:101A300008ED00E010B50121880700F017F828B183
:101A40000121880700F003F8FFF7FAFB10BDCA4335
:101A50000282704721B1028842F00102028004E054
:101A600002884FF6FE731A400280704730B5024676
:101A7000002000230024158A05EA0103958905EA60
:101A8000010413B10CB1012000E0002030BD1AB1F7
:101A900083890B43838102E083898B438381704771
:101AA000002202881D4B98420ED01D4B98420BD04D
:101AB000B0F1804F08D01B4B984205D01A4B98428A
:101AC00002D01A4B984204D14FF68F731A404B88BC
:101AD0001A43174B984207D0164B984204D04FF642
:101AE000FF431A40CB881A4302808B8883850B887A
:101AF00003850A4B98420BD0094B984208D00E4BF5
:101B0000984205D00D4B984202D00D4B984201D11E
:101B10000B7A03860123838270470000002C01406A
:101B2000003401400004004000080040000C004068
:101B300000100040001400400040014000440140FB
:101B400000480140F8B540F22771464800F0A9F876
:101B5000012843D144480068404243490979084478
:101B6000C0B238B94048006840423F49097908444A
:101B7000C0B200E00120044654B300BF3A480068F8
:101B8000C0F58070A04204D237480068C0F580706C
:101B900000E020460546661B3348026808301118ED
:101BA0002A466846FEF7F0FA0DEB050032462E494C
:101BB0000831FEF7E9FA2C4800782044C0B22A49DF
:101BC000086000BF9DF80010264800F02AF905E0E3
:101BD000002240F22771234800F08DF840F2255191
:101BE000204800F05EF801283BD1204800781F49CA
:101BF0000979401A401EC0B238B91C4800781B4908
:101C00000979401A401EC0B200E001200446154880
:101C100000F002F9C0B2009000BF14484068C0F55F
:101C20008070A04204D211484068C0F5807000E086
:101C300020460546661B0D494A68083150182A4659
:101C40006946FEF7A1FA0DEB050132460748083058
:101C5000FEF79AFA054800792044C0B2034948606B
:101C600000BFF8BD00380140741C00206C1B002030
:101C700021B1828942F40052828104E082894DF6CA
:101C8000FF731A408281704702460020B1F5007F41
:101C900000D100BF13880B400BB1012000E00020F1
:101CA000704770B50246002400230025002040F64E
:101CB0006A16B14200D100BFC1F3421501F01F0303
:101CC000012606FA03F3012D02D19689334006E07E
:101CD000022D02D1168A334001E0968A33400C125D
:101CE000012606FA04F41688344013B10CB1012021
:101CF00000E0002070BDF0B503460024002600255A
:101D0000002040F66A17B94200D100BF1846C1F35F
:101D1000421401F01F06012707FA06F5012C01D134
:101D20000C3004E0022C01D1103000E014301AB164
:101D300007682F43076002E00768AF430760F0BD04
:101D40002DE9F04786B005460E460024A24600BFA6
:101D5000A1460027B08900B100BF2F462C8A4CF65F
:101D6000FF700440F08804432C82AC894EF6F310D7
:101D70000440B08831890843718908430443AC8129
:101D8000AC8A4FF6FF400440B0890443AC8201A8FE
:101D9000FFF780FC1F48874202D1DDF810A001E068
:101DA000DDF80CA0A88900F4004040B10AEBCA009D
:101DB00000EB0A1031684900B0FBF1F807E00AEBCC
:101DC000CA0000EB0A1031688900B0FBF1F864200A
:101DD000B8FBF0F004012009642101FB1089A889F7
:101DE00000F4004040B1322000EBC900B0FBF1F03C
:101DF00000F00700044308E0322000EB09106421E2
:101E0000B0FBF1F000F00F0004432C8106B0BDE8F8
:101E1000F08700000038014001468888C0F30800C0
:101E20007047C1F308028280704700BFFEE70000E0
:101E3000014A024900F013B8ED1F01087C000020A0
:101E400002E008C8121F08C1002AFAD17047704783
:101E5000002001E001C1121F002AFBD170472DE9CB
:101E6000F04116460F460446002503E03946B047C8
:101E7000641C6D1C20780028F8D12846BDE8F0814C
:101E800000B585B00D4800F021F840B169460C4816
:101E900000F0D2F818B969460848FEF760FE094814
:101EA00000F014F840B16946074800F0C5F818B9C9
:101EB00069460448FEF753FE05B000BD00640040CB
:101EC0005C070020006800406411002001460020EB
:101ED0008A6802F08062B2F1806F01D1012010E0C7
:101EE0008A6802F00062B2F1006F01D1012008E0BF
:101EF0008A6802F08052B2F1805F01D1012000E0D7
:101F00000020704710B56FF00400FFF747FD0A4846
:101F100000680A49B0FBF1F00949087008460078EA
:101F200000EB4001C1EBC0104FF6FF7101EAC000A9
:101F30000449088010BD00000000002000127A0053
:101F4000140000201600002000B587B001210420F5
:101F5000FFF790FB01210803FFF78CFB1020ADF881
:101F600018008DF81B0003208DF81A0006A91D48E3
:101F7000FEF7B6FEE020ADF8180018208DF81B0023
:101F800003208DF81A0006A91648FEF7A9FE1021B5
:101F90001448FEF779FF0020ADF804004FF482707A
:101FA000ADF806000020ADF808000220ADF80A00E8
:101FB0000120ADF80C004002ADF80E001020ADF885
:101FC00010000020ADF812000720ADF8140001A9A0
:101FD0000548FFF733FC01210348FFF723FC07B056
:101FE00000BD0000000801400030014070B504460B
:101FF0000D46E1B20548FFF714FF00BF402103483A
:10200000FFF742FE0028F9D0204670BD003801409D
:10201000014608780A79801A00F07F0070470000B6
:102020000020034908604860024908604860704722
:102030005C0700206411002070B504460D460026A0
:102040002046FFF7E5FF80B1606800EB800204F1F5
:10205000080000EB820114222846FEF795F820794B
:10206000401C00F07F00606001E04FF0FF3630461A
:1020700070BD70B504460D462046FFF7C9FF8028A5
:102080000FD2216801EB810204F1080101EB82000B
:1020900014222946FEF778F82078401C00F07F00D3
:1020A000206070BD06480749086000F009F9FEF796
:1020B0008FF803E0FEF7F0F8FFF7E2FEFAE7000022
:1020C0000000010808ED00E010B586B004460121CB
:1020D0000420FFF7CFFA01218803FFF7CBFA4FF472
:1020E0000070ADF8140018208DF8170003208DF84B
:1020F000160005A91F48FEF7F3FD4FF48060ADF808
:10210000140004208DF8170005A91A48FEF7E8FD11
:1021100001940020ADF80800ADF80A00ADF80C00FD
:10212000ADF810000C20ADF80E0001A91248FFF721
:1021300007FE25208DF8000002208DF801008DF8A3
:10214000020001208DF803006846FFF749FA0020DD
:102150000A49486008600A4948600860012240F264
:1021600025510548FFF7C7FD01210348FFF780FD12
:1021700006B010BD00080140003801406C1B002073
:10218000741C00202DE9F04106460D4606B115B934
:102190000020BDE8F0812148006840421F490979CC
:1021A0000844C0B2A84207D21C48006840421B49FC
:1021B00009790844C0B200E02846044600BF174829
:1021C0000068C0F58070A04204D214480068C0F5D1
:1021D000807000E020460746A4EB07080F4802681D
:1021E000083011183A463046FDF7CEFFF019424646
:1021F0000A490831FDF7C8FF084800782044C0B2FA
:102200000649086000BFAC4205D2012240F22551C8
:102210000348FFF770FDA0B2BBE700006C1B002075
:10222000003801402DE9F04104460E4604B116B9CC
:102230000020BDE8F081204800781F490979401A44
:10224000401EC0B2B04207D21B4800781A49097933
:10225000401A401EC0B200E03046054600BF164896
:102260004068C0F58070A84204D213484068C0F5A9
:10227000807000E028460746A5EB07080E494A682B
:10228000083150183A462146FDF77EFFE1194246D3
:1022900009480830FDF778FF074800792844C0B2A4
:1022A0000549486000BF012240F227710348FFF74B
:1022B00022FDA8B2BDE70000741C002000380140D8
:1022C00010B54FF4E130FFF7FFFEFFF71BFEFFF7FD
:1022D000E1F8FFF739FEFEF7BFFEFEF7E7FEFEF777
:1022E000D7FDFFF79DFE002405E000212046FEF704
:1022F0001BFF601CC4B2122CF7DB10BD1C230108AD
:102300000000002080000000401E01089C230108FE
:102310008000002000210000501E010800A24A0495
:102320000000000000000000010203040607080985
:10233000000000000000000000000000000000009D
:10234000000000000000000000000000000000008D
:10235000000000000000000000000000000000007D
:10236000000000000000000000000000000000006D
:10237000000000000000000000000000000000005D
:102380000000000000010203040102030406070824
:0C23900009020406080000000000000024
:04000005080101519C
:00000001FF
